{
  "abi": [
    {
      "inputs": [],
      "name": "get",
      "outputs": [
        {
          "internalType": "uint256",
          "name": "",
          "type": "uint256"
        },
        {
          "internalType": "uint256",
          "name": "",
          "type": "uint256"
        }
      ],
      "stateMutability": "view",
      "type": "function"
    },
    {
      "inputs": [],
      "name": "num1",
      "outputs": [
        {
          "internalType": "uint256",
          "name": "",
          "type": "uint256"
        }
      ],
      "stateMutability": "view",
      "type": "function"
    },
    {
      "inputs": [],
      "name": "num2",
      "outputs": [
        {
          "internalType": "uint256",
          "name": "",
          "type": "uint256"
        }
      ],
      "stateMutability": "view",
      "type": "function"
    },
    {
      "inputs": [
        {
          "internalType": "uint256",
          "name": "_num1",
          "type": "uint256"
        },
        {
          "internalType": "uint256",
          "name": "_num2",
          "type": "uint256"
        }
      ],
      "name": "set",
      "outputs": [],
      "stateMutability": "nonpayable",
      "type": "function"
    }
  ],
  "bytecode": {
    "object": "0x608060405234801561001057600080fd5b5060f78061001f6000396000f3fe6080604052348015600f57600080fd5b506004361060465760003560e01c806315d4266c14604b5780631ab06ee51460665780633b9eac4b14607e5780636d4ce63c146086575b600080fd5b605360015481565b6040519081526020015b60405180910390f35b607c607136600460a0565b600091909155600155565b005b605360005481565b60005460015460408051928352602083019190915201605d565b6000806040838503121560b257600080fd5b5050803592602090910135915056fea264697066735822122084d673ec904a64beab7da41a9e26ea8166bb2a79eeceacdb7b6b55dbdf29934964736f6c63430008110033",
    "linkReferences": {}
  },
  "methodIdentifiers": {
    "get()": "6d4ce63c",
    "num1()": "3b9eac4b",
    "num2()": "15d4266c",
    "set(uint256,uint256)": "1ab06ee5"
  },
  "id": 15
}